:1000000000800020D9040000210500002505000023
:100010001D0500001D0500001D050000000000007A
:1000200000000000000000000000000029050000A2
:100030001D050000000000002D0500003105000036
:1000400035050000390500003D05000041050000B0
:1000500045050000490500004D0500005105000060
:1000600055050000590500005D0500006105000010
:1000700065050000690500006D05000071050000C0
:10008000750500001D0500001D0500001D05000090
:100090001D0500001D0500001D0500001D050000D8
:1000A000790500007D050000810500008505000040
:1000B00000000000890500008D050000910500008A
:1000C00095050000990500009D050000A1050000B0
:1000D000A505000000000000000000000000000076
:1000E0000000000000000000000000001D050000EE
:1000F000A9050000AD050000B1050000B505000030
:10010000B9050000BD050000C105000000000000A9
:1001100000000000000000000000000000000000DF
:10012000000000001D0500001D0500001D05000069
:100130001D0500001D0500001D0500001D05000037
:100140001D0500001D0500001D0500001D05000027
:100150001D0500001D0500001D0500001D05000017
:100160001D0500001D0500001D0500001D05000007
:100170001D0500001D0500001D0500001D050000F7
:10018000000000001D0500001D0500001D05000009
:100190001D0500001D0500001D0500001D050000D7
:1001A0001D0500001D0500001D0500001D050000C7
:1001B0001D0500001D0500001D0500001D050000B7
:1001C0001D0500001D0500001D0500001D050000A7
:1003F0001D0500001D0500001D050000FFFFFFFF9B
:10040000FFFFFFFFFFFFFFFFFFFFFFFFFEFFFFFFFD
:1004100010B5054C237833B9044B13B10448AFF33E
:1004200000800123237010BD6480FF1F00000000C6
:10043000001B000008B5064B1BB106480649AFF388
:1004400000800648036813B1054B03B1984708BD07
:1004500000000000001B00006880FF1F6080FF1F7D
:1004600000000000154B002B08BF134B9D46A3F561
:10047000803A00218B460F461348144A121A00F0A6
:1004800063FF0F4B002B00D098470E4B002B00D082
:1004900098470020002104000D000D48002802D0DC
:1004A0000C48AFF3008000F029FF2000290000F085
:1004B0009DFB00F00FFF00BF00000800008000203F
:1004C00000000000000000006480FF1F088AFF1F7A
:1004D000000000000000000072B6094809490160F0
:1004E0000948804709490A4A0A4B9A42BEBF51F857
:1004F000040B42F8040BF8E762B607488047000097
:1005000008ED00E000000000790B0000281B00004F
:100510000080FF1F6480FF1F65040000FFF7FEBF1F
:1005200028480047284800472848004728480047EF
:1005300028480047284800472848004728480047DF
:1005400028480047284800472848004728480047CF
:1005500028480047284800472848004728480047BF
:1005600028480047284800472848004728480047AF
:10057000284800472848004728480047284800479F
:100580002848004728480047284800472748004790
:10059000264800472548004724480047234800478D
:1005A0002348004723480047234800472348004783
:1005B0002348004723480047234800472348004773
:1005C00023480047210500002505000029050000FB
:1005D0002D05000031050000510E0000650E0000E1
:1005E000790E00008D0E0000A10E0000B50E000077
:1005F000C90E0000DD0E0000F10E0000050F000026
:10060000190F00002D0F0000410F0000550F0000D2
:10061000690F00007D0F00001D050000CD100000D7
:10062000E9100000B90C00001D050000910F00004A
:1006300005110000491100001D050000AD1100006A
:100640001D050000D91100001D0500000512000065
:100650001D0500000FB480B582B000AF0B4B1B78B6
:10066000002B02D14FF0FF3309E007F114033B6088
:10067000074839693A6800F0D5F878607B68184611
:100680000837BD46BDE8804004B070478080FF1F3A
:100690009506000080B582B000AF78600A4B1B78E9
:1006A000002B02D14FF0FF3309E0074B9B68064A4D
:1006B00051683A1D08461146012298470123184601
:1006C0000837BD4680BD00BF8080FF1F80B586B063
:1006D00000AFB9607A603B600346FB73BB687B6127
:1006E0000CE097F90F203B6A104698473B681B685F
:1006F0005A1C3B681A607B6901337B617A697B68AD
:100700009A42EEDB1837BD4680BD00BF80B48DB085
:1007100000AFF860B9607A603B600023FB61FB6862
:10072000BB61BB695A1CBA6100221A707B68002B3E
:1007300036D0BB681B68FB62FB6A002B07D1BB6924
:1007400030221A70FB690133FB61FB6964E023E02E
:10075000FA6A3B6892FBF3F37B617B693A6802FBC0
:1007600003F3FA6AD31ABB62BB6A002B06DABB6AD0
:100770003B623B6AC3F13003BB6202E0BB6A3033C9
:10078000BB627B69FB62BB695A1CBA61BA6AD2B2AE
:100790001A70FB690133FB61FB6A002BD8D13AE088
:1007A000BB681B687B627B6A002B07D1BB69302268
:1007B0001A70FB690133FB61FB692DE028E03B689F
:1007C0007A6AB2FBF3F33B613B683A6902FB03F3DD
:1007D0007A6AD31A3B623B6A092B03D83B6A3033EF
:1007E0003B620AE097F83830002B01D0412300E04B
:1007F00061233A6A13440A3B3B623B697B62BB69F3
:100800005A1CBA613A6AD2B21A70FB690133FB61B1
:100810007B6A002BD3D1FB6918463437BD465DF89F
:10082000047B704780B59CB002AFF860B9607A6015
:1008300000233B660023FB650023BB61002387F890
:100840004A3000233B61BB687B6688E17B6C252BCB
:1008500006D0FB68786C9847BB690133BB617BE1CC
:10086000012387F84B3000237B650023BB651CE028
:100870007B6E01337B667B6E1B785BB27B647B6C2B
:100880002F2B0DDD7B6C392B0ADC7A6D13469B0018
:1008900013445B001A467B6C1344303B7B6504E0D9
:1008A0007B6E013B7B660123BB65BB6D002BDFD0FC
:1008B00006233B657B6E01337B667B6E1B785BB2E8
:1008C0002E2B25D100233B650023BB651CE07B6EEE
:1008D00001337B667B6E1B785BB27B647B6C2F2B5A
:1008E0000DDD7B6C392B0ADC3A6D13469B001344FB
:1008F0005B001A467B6C1344303B3B6504E07B6E27
:10090000013B7B660123BB65BB6D002BDFD002E0A2
:100910007B6E013B7B667B6E01337B667B6E1B7857
:100920005BB27B647B6C642B1BD07B6C692B18D017
:100930007B6C662B15D07B6C462B12D07B6C782B96
:100940000FD07B6C582B0CD07B6C6F2B09D07B6C41
:10095000622B06D07B6C702B03D07B6C752B40F028
:10096000BA807B6C642B02D07B6C692B17D17B68BF
:100970001A1D7A601B687B6107F11C0207F11403E2
:1009800097F84B1000911046194601220A23FFF7F1
:10099000BDFEF86507F11C02FB6D13443B667B6CE2
:1009A000582B02D07B6C782B1DD17B6C782B02D11D
:1009B000002387F84B307B681A1D7A601B683B6107
:1009C00007F11C0207F1100397F84B100091104635
:1009D000194600221023FFF799FEF86507F11C0263
:1009E000FB6D13443B667B6C6F2B07D17B681A1D34
:1009F0007A601B683B61082387F84A307B6C622B66
:100A00000CD17B681A1D7A601B683B61022387F852
:100A10004A3007F11C02FB6D13443B667B6C702B64
:100A20000CD17B681A1D7A601B683B61102387F824
:100A30004A3007F11C02FB6D13443B667B6C752B3F
:100A40000CD17B681A1D7A601B683B610A2387F80A
:100A50004A3007F11C02FB6D13443B667B6C6F2B25
:100A600008D07B6C622B05D07B6C702B02D07B6C2A
:100A7000752B13D197F84A3007F11C0107F11002CA
:100A800097F84B000090084611460022FFF73EFE03
:100A9000F86507F11C02FB6D13443B667A6D07F1A4
:100AA0001803F96800912020F96DFFF70FFE3B6EE7
:100AB000002B0FD00AE03B6E5A1E3A661B785AB2E2
:100AC000FB6810469847BB690133BB613B6E1B78DE
:100AD000002BF0D140E07B6C632B0DD17B681A1D9D
:100AE0007A601B68DBB25BB23B64FB68386C98478A
:100AF000BB690133BB612FE07B6C732B26D17B6814
:100B00001A1D7A601B68FB64FB6C002B24D0F86C08
:100B100000F022FC0346FB657A6D07F11803F968C3
:100B200000912020F96DFFF7D1FD0AE0FB6C5A1C03
:100B3000FA641B785AB2FB6810469847BB690133C8
:100B4000BB61FB6C1B78002BF0D105E0FB68786C77
:100B50009847BB690133BB617B6E01337B667B6E5B
:100B60001B785BB27B647B6C002B7FF46FAEBB6940
:100B700018466837BD4680BD80B400AF074B4CF2C5
:100B80002052DA81054B4DF62812DA81034B4FF4DF
:100B9000E9721A80BD465DF8047B7047002005406D
:100BA00080B483B000AF786039607B683A68DA60FF
:100BB0000C37BD465DF8047B704700BF80B483B03E
:100BC00000AF00237B6000237B6003E000BF7B68F5
:100BD00001337B607A68044B9A42F7D90C37BD46E3
:100BE0005DF8047B704700BFFF340C0080B582B015
:100BF00000AF01233B7100237B7100F04BFB00F041
:100C00000DFB00F005FB0948FFF724FD0848FFF73E
:100C100021FD3B1D074805211A4600F0F9F9FFF7B1
:100C2000CDFF04482021FFF7BBFFF8E76C1300005D
:100C30008813000080F00F4080B586B002AFF860E6
:100C4000B9607A603B607B68009304483968FA6851
:100C5000BB68FFF7FFFC00BEFDE700BFB01300005C
:100C600080B483B000AF78607B681B68DB0FDBB2B9
:100C700018460C37BD465DF8047B704780B582B0DE
:100C800000AF786039607868FFF7EAFF0346002B11
:100C900005D0074B1B6878683968984704E0054B16
:100CA0001B687868396898470837BD4680BD00BF23
:100CB0009480FF1F9880FF1F80B500AF084B1B6812
:100CC000002B06D1074840F24E61074A074BFFF759
:100CD000B3FF034B1B6806481946FFF7CFFF80BDE3
:100CE0009080FF1FF0130000701A000060140000D5
:100CF00000C0024090B589B000AF78607B68002BDF
:100D000006D150484FF44E714F4A504BFFF794FFB5
:100D10007B689B687A68127CDA777B68DB68002BDB
:100D20000DD17B681B68002B09D07B681C687B6831
:100D30005B687868194601220023A0477EE07B6843
:100D40009A687B681B7C5B01134403F5805318335E
:100D50001B687B617B689A687B681B7C5B01134422
:100D600003F5805318339B889BB203F08003002B5C
:100D70000CBF00230123FB747B68DB687A69D31AFC
:100D80007B617B695B09FB60FB7C002B02D0FB680D
:100D9000FB760EE0FB68002B04D0FB68DBB2013B66
:100DA000DBB205E07B681B7DDBB2DBB2013BDBB273
:100DB000FB76FA7E7B685B7CDBB25BB29A4212D137
:100DC0007B68DB7CDAB27B681B7DDBB252B25BB244
:100DD0009A4205D17B68DB7CDBB25BB2FB6113E03E
:100DE0000023FB6110E0FA7E7B685B7CDBB25BB2C8
:100DF000D31AFB61FB69002B06DA7B681B7DDBB233
:100E00005BB2FA691344FB61FA7E7B685A747B68B3
:100E1000DB7CDBB2DAB2FB69DBB2D31ADBB2DAB26B
:100E20007B68DA747B681B68002B07D07B681C68C2
:100E30007B685968FB69FA7C7868A0472437BD460F
:100E400090BD00BF70140000881A00006C150000EF
:100E500080B500AF024B1B681846FFF74BFF80BD03
:100E60009C80FF1F80B500AF024B5B681846FFF700
:100E700041FF80BD9C80FF1F80B500AF024B9B6887
:100E80001846FFF737FF80BD9C80FF1F80B500AF7D
:100E9000024BDB681846FFF72DFF80BD9C80FF1FCB
:100EA00080B500AF024B1B691846FFF723FF80BDDA
:100EB0009C80FF1F80B500AF024B5B691846FFF7AF
:100EC00019FF80BD9C80FF1F80B500AF024B9B695E
:100ED0001846FFF70FFF80BD9C80FF1F80B500AF55
:100EE000024BDB691846FFF705FF80BD9C80FF1FA2
:100EF00080B500AF024B1B6A1846FFF7FBFE80BDB2
:100F00009C80FF1F80B500AF024B5B6A1846FFF75D
:100F1000F1FE80BD9C80FF1F80B500AF024B9B6A35
:100F20001846FFF7E7FE80BD9C80FF1F80B500AF2D
:100F3000024BDB6A1846FFF7DDFE80BD9C80FF1F79
:100F400080B500AF024B1B6B1846FFF7D3FE80BD88
:100F50009C80FF1F80B500AF024B5B6B1846FFF70C
:100F6000C9FE80BD9C80FF1F80B500AF024B9B6B0C
:100F70001846FFF7BFFE80BD9C80FF1F80B500AF05
:100F8000024BDB6B1846FFF7B5FE80BD9C80FF1F50
:100F900080B500AF094B1B68002B06D1084840F212
:100FA0001951084A084BFFF747FE084B1B68034AD4
:100FB000126807481146984780BD00BFDC80FF1FBC
:100FC000B8160000981A0000A4190000E080FF1F66
:100FD0000040024080B485B000AFF860B9601346AD
:100FE000FB71FB79002B07D1BB68012202FA03F3E6
:100FF0001A46FB689A6006E0BB68012202FA03F316
:101000001A46FB685A601437BD465DF8047B70478A
:1010100080B584B000AFF860B9607A607B68002B5F
:1010200005D114484B21144A144BFFF705FE7B6889
:101030001B78002B0AD1FB685A69BB68012101FAB1
:1010400003F3DB431A40FB685A610FE07B685B786F
:10105000F868B9681A46FFF7BDFFFB685A69BB68B4
:10106000012101FA03F31A43FB685A611037BD46A8
:1010700080BD00BFB8190000B01A0000F8190000C8
:1010800080B582B000AF786039607B68DB78DBB216
:1010900003F01003002B06D17B689B78DBB203F0D2
:1010A0002003002B05D0074B1B68786839689847E8
:1010B00004E0054B1B687868396898470837BD46D7
:1010C00080BD00BFEC80FF1FF080FF1F80B500AF28
:1010D000034B1B6803481946FFF7D2FF80BD00BFD2
:1010E000E480FF1F0060064080B500AF034B5B68E3
:1010F00003481946FFF7C4FF80BD00BFE480FF1F0F
:101100000070064080B500AF094B1B68002B06D16C
:10111000084840F21241084A084BFFF78DFD084B82
:101120001B68034A126807481146984780BD00BFF4
:10113000008AFF1F001A0000C01A0000481A0000B1
:10114000F480FF1F00F0024080B500AF094B5B68E0
:10115000002B06D108484FF48361084A084BFFF77B
:101160006BFD084B1B68034A5268074811469847B5
:1011700080BD00BF008AFF1F001A0000DC1A0000BB
:101180005C1A0000F880FF1F00F0024080B500AF3D
:10119000034B1B68034A126803481146984780BDF9
:1011A0001481FF1FFC80FF1F00A0064080B500AF28
:1011B000FFF7ECFF80BD00BF80B500AF034B1B689D
:1011C000034A526803481146984780BD1481FF1FA7
:1011D000FC80FF1F00B0064080B500AFFFF7ECFFBA
:1011E00080BD00BF80B500AF034B1B68034A926807
:1011F00003481146984780BD1481FF1FFC80FF1FE4
:1012000000C0064080B500AFFFF7ECFF80BD00BF17
:1012100080B400AFBD465DF8047B704780B400AF7A
:10122000BD465DF8047B704780B485B000AF786040
:101230007B681B0C03F1804303F58E23FB60FB6886
:10124000FA6811687A6892B2012000FA02F20A4341
:101250001A601437BD465DF8047B704780B485B0D2
:1012600000AFF860B9601346FB71FB68BA6853F8C9
:10127000223023F4E062FB791B0203F4E06342EACC
:101280000301FB68BA6843F822101437BD465DF8C5
:10129000047B704780B500AF0A48FFF7C5FF0A48D6
:1012A00009210322FFF7DAFF074808210322FFF78D
:1012B000D5FF0648FFF7B8FF054805210122FFF7D3
:1012C000CDFF80BD0D00381000D004400B00381059
:1012D00000B0044008B5074B044613B10021AFF33A
:1012E0000080054B1868836A03B19847204600F0D8
:1012F0003BF800BF00000000FC1A000070B50E4B68
:101300000E4DED1AAD1000241E46AC4204D056F826
:10131000242090470134F8E700F0F2FB084D094B18
:10132000ED1AAD1000241E46AC4204D056F824201D
:1013300090470134F8E770BD201B0000201B00001F
:10134000241B0000201B000002440346934202D0ED
:1013500003F8011BFAE77047034613F8012B002A34
:10136000FBD1181A01387047FEE700BF0D0A20476D
:1013700050494F20447269766572206578616D70BE
:101380006C650D0A000000000D0A20546865204CB1
:1013900045442069732074616B696E6720747572AF
:1013A0006E7320746F207368696E652E0D0A0000DD
:1013B000415353455254204552524F52202220252A
:1013C0007320223A2066696C652022257322204C06
:1013D000696E6520222564222066756E6374696FCC
:1013E0006E206E616D652022257322200A000000A8
:1013F0002E2E2F647269766572732F66736C5F642C
:101400007370692E63000000696E7374616E6365AA
:10141000203C2046534C5F464541545552455F534E
:101420004F435F445350495F434F554E54000000B3
:1014300066616C736500000068616E646C65000035
:101440007472616E736665720000000068616E649C
:101450006C65202626207472616E736665720000CA
:10146000675F6473706948616E646C655B305D00D2
:101470002E2E2F647269766572732F66736C5F65AA
:10148000646D612E63000000696E7374616E636544
:10149000203C2046534C5F464541545552455F53CE
:1014A0004F435F45444D415F434F554E540000004C
:1014B0006368616E6E656C203C2046534C5F464508
:1014C00041545552455F45444D415F4D4F44554C45
:1014D000455F4348414E4E454C0000007463642014
:1014E000213D204E554C4C00282875696E743332CE
:1014F0005F74297463642026203078314655292092
:101500003D3D203000000000636F6E66696720215A
:101510003D204E554C4C0000282875696E743332BE
:101520005F74296E657874546364202620307831A6
:10153000465529203D3D2030000000006C696E6B4F
:1015400065644368616E6E656C203C2046534C5F59
:10155000464541545552455F45444D415F4D4F44CA
:10156000554C455F4348414E4E454C0068616E64A2
:101570006C6520213D204E554C4C00002828756993
:101580006E7433325F7429746364506F6F6C2026FD
:1015900020307831465529203D3D203000000000A4
:1015A0007372634164647220213D204E554C4C009F
:1015B000646573744164647220213D204E554C4C27
:1015C00000000000287372635769647468203D3D11
:1015D00020315529207C7C202873726357696474FC
:1015E00068203D3D20325529207C7C202873726381
:1015F0005769647468203D3D20345529207C7C2047
:10160000287372635769647468203D3D20313655F4
:1016100029207C7C20287372635769647468203D9C
:101620003D2033325529000028646573745769647E
:101630007468203D3D20315529207C7C202864653C
:1016400073745769647468203D3D20325529207CAD
:101650007C2028646573745769647468203D3D205C
:10166000345529207C7C2028646573745769647420
:1016700068203D3D2031365529207C7C202864653A
:1016800073745769647468203D3D203332552900D6
:101690007472616E73666572427974657320252079
:1016A00062797465734561636852657175657374B9
:1016B000203D3D20300000002E2E2F64726976659B
:1016C00072732F66736C5F666C657863616E2E63F0
:1016D00000000000696E7374616E6365203C2046F3
:1016E000534C5F464541545552455F534F435F4607
:1016F0004C455843414E5F434F554E540000000047
:101700006D62496478203C2046534C5F4645415405
:101710005552455F464C455843414E5F4841535FE3
:101720004D4553534147455F4255464645525F4DEF
:1017300041585F4E554D4245526E2862617365298E
:10174000000000002128626173652D3E4D43522048
:10175000262043414E5F4D43525F4D4449535F4DF8
:1017600041534B2900000000626175645261746549
:101770005F427073203C3D20313030303030305586
:1017800000000000707269446976203C3D20736F50
:1017900075726365436C6F636B5F487A000000008D
:1017A000636F6E666967000028636F6E6669672DF8
:1017B0003E6D61784D624E756D203E2030292026A9
:1017C000262028636F6E6669672D3E6D61784D62D5
:1017D0004E756D203C3D2046534C5F464541545567
:1017E00052455F464C455843414E5F4841535F4D1B
:1017F0004553534147455F4255464645525F4D412B
:10180000585F4E554D4245526E28626173652929D5
:10181000000000006D61736B496478203C3D202816
:10182000626173652D3E4D435220262043414E5F39
:101830004D43525F4D41584D425F4D41534B29003E
:101840006D62496478203C3D2028626173652D3EBD
:101850004D435220262043414E5F4D43525F4D4140
:10186000584D425F4D41534B2900000021464C45E5
:101870005843414E5F49734D624F636375706965AC
:101880006428626173652C206D62496478290000C8
:101890002828636F6E66696729207C7C2028666132
:1018A0006C7365203D3D20656E61626C6529290081
:1018B00028636F6E66696729207C7C202866616CCE
:1018C0007365203D3D20656E61626C6529000000F6
:1018D000636F6E6669672D3E696446696C746572F4
:1018E0004E756D203C3D203132380000282873654C
:1018F0007475705F6D62202D203829202D202832CC
:10190000202A207266666E2929203E2030000000C1
:1019100074784672616D650074784672616D652DEC
:101920003E6C656E677468203C3D20380000000006
:1019300072784672616D650068616E646C65000066
:101940007866657200000000786665722D3E6D62F3
:10195000496478203C3D2028626173652D3E4D43EB
:101960005220262043414E5F4D43525F4D41584D1A
:10197000425F4D41534B290021464C455843414E4F
:101980005F49734D624F6363757069656428626176
:1019900073652C20786665722D3E6D6249647829E6
:1019A00000000000735F666C657863616E48616E6D
:1019B000646C655B305D00002E2E2F647269766565
:1019C00072732F66736C5F6770696F2E630000001F
:1019D000696E7374616E6365203C2046534C5F46AC
:1019E0004541545552455F534F435F4750494F5F00
:1019F000434F554E54000000636F6E6669670000E8
:101A00002E2E2F647269766572732F66736C5F7306
:101A100061692E6300000000696E7374616E636516
:101A2000203C2046534C5F464541545552455F5338
:101A30004F435F4932535F434F554E5400000000FF
:101A400068616E646C650000735F73616948616E04
:101A5000646C655B305D5B305D000000735F7361DB
:101A60006948616E646C655B305D5B315D000000F0
:101A7000535049305F4472697665724952514861EA
:101A80006E646C657200000045444D415F48616EB4
:101A9000646C65495251000043414E305F447269A5
:101AA00076657249525148616E646C65720000003F
:101AB0004750494F5F50696E496E697400000000DD
:101AC000493253305F54785F447269766572495287
:101AD0005148616E646C65720000000049325330F9
:101AE0005F52785F44726976657249525148616EFF
:101AF000646C657200000000430000000080FF1F5E
:101B0000F8B500BFF8BC08BC9E467047F8B500BFEA
:081B1000F8BC08BC9E467047BA
:081B18004CE9FF7F0100000011
:041B20003504000088
:041B240011040000A8
:101B280000000000000000000000000000000000AD
:101B3800000000000000000000000000000000009D
:101B4800F81A00000000000000000000000000007B
:101B5800000000000000000000000000000000007D
:101B6800000000000000000000000000000000006D
:101B7800000000000000000000000000000000005D
:041B88000000000059
:04000003000004D91C
:00000001FF
